{"abi":[{"type":"constructor","inputs":[],"stateMutability":"nonpayable"},{"type":"function","name":"acceptOwnership","inputs":[],"outputs":[],"stateMutability":"nonpayable"},{"type":"function","name":"fee","inputs":[],"outputs":[{"name":"","type":"uint256","internalType":"uint256"}],"stateMutability":"view"},{"type":"function","name":"fulfill","inputs":[{"name":"requestId","type":"bytes32","internalType":"bytes32"},{"name":"data","type":"uint256","internalType":"uint256"}],"outputs":[],"stateMutability":"nonpayable"},{"type":"function","name":"owner","inputs":[],"outputs":[{"name":"","type":"address","internalType":"address"}],"stateMutability":"view"},{"type":"function","name":"response","inputs":[],"outputs":[{"name":"","type":"uint256","internalType":"uint256"}],"stateMutability":"view"},{"type":"function","name":"reuestFunction","inputs":[],"outputs":[],"stateMutability":"nonpayable"},{"type":"function","name":"transferOwnership","inputs":[{"name":"to","type":"address","internalType":"address"}],"outputs":[],"stateMutability":"nonpayable"},{"type":"event","name":"ChainlinkCancelled","inputs":[{"name":"id","type":"bytes32","indexed":true,"internalType":"bytes32"}],"anonymous":false},{"type":"event","name":"ChainlinkFulfilled","inputs":[{"name":"id","type":"bytes32","indexed":true,"internalType":"bytes32"}],"anonymous":false},{"type":"event","name":"ChainlinkRequested","inputs":[{"name":"id","type":"bytes32","indexed":true,"internalType":"bytes32"}],"anonymous":false},{"type":"event","name":"OwnershipTransferRequested","inputs":[{"name":"from","type":"address","indexed":true,"internalType":"address"},{"name":"to","type":"address","indexed":true,"internalType":"address"}],"anonymous":false},{"type":"event","name":"OwnershipTransferred","inputs":[{"name":"from","type":"address","indexed":true,"internalType":"address"},{"name":"to","type":"address","indexed":true,"internalType":"address"}],"anonymous":false}],"bytecode":{"object":"0x6080604052600160045534801561001557600080fd5b50338060008161006c5760405162461bcd60e51b815260206004820152601860248201527f43616e6e6f7420736574206f776e657220746f207a65726f000000000000000060448201526064015b60405180910390fd5b600680546001600160a01b0319166001600160a01b038481169190911790915581161561009c5761009c81610127565b5050506100c273779877a7b0d9e8603169ddbd7836e478b46247896101d160201b60201c565b600380546001600160a01b031916730facf846af22bce1c7f88d1d55a038f27747ed2b1790557f613833353666343835363963343334656161346163356663623464623563633060095561011f670de0b6b3a764000060016101f3565b600a5561021e565b336001600160a01b0382160361017f5760405162461bcd60e51b815260206004820152601760248201527f43616e6e6f74207472616e7366657220746f2073656c660000000000000000006044820152606401610063565b600780546001600160a01b0319166001600160a01b03838116918217909255600654604051919216907fed8889f560326eb138920d842192f0eb3dd22b4f139c87a2c57538e05bae127890600090a350565b600280546001600160a01b0319166001600160a01b0392909216919091179055565b808202811582820484141761021857634e487b7160e01b600052601160045260246000fd5b92915050565b6110978061022d6000396000f3fe608060405234801561001057600080fd5b506004361061007d5760003560e01c80637a7f01a71161005b5780637a7f01a7146100a75780638da5cb5b146100c3578063ddca3f43146100de578063f2fde38b146100e757600080fd5b80631bdd20f9146100825780634357855e1461008c57806379ba50971461009f575b600080fd5b61008a6100fa565b005b61008a61009a366004610d44565b6102fa565b61008a6103c2565b6100b0600b5481565b6040519081526020015b60405180910390f35b6006546040516001600160a01b0390911681526020016100ba565b6100b0600a5481565b61008a6100f5366004610d66565b610470565b600061010f600954634357855e60e01b610484565b905061015f604051806040016040528060068152602001651b595d1a1bd960d21b8152506040518060400160405280600381526020016211d15560ea1b815250836104aa9092919063ffffffff16565b61019f604051806040016040528060038152602001621d5c9b60ea1b815250604051806080016040528060598152602001611009605991398391906104aa565b6101e2604051806040016040528060078152602001666865616465727360c81b81525060405180602001604052806000815250836104aa9092919063ffffffff16565b61022260405180604001604052806004815260200163626f647960e01b81525060405180602001604052806000815250836104aa9092919063ffffffff16565b6102656040518060400160405280600781526020016618dbdb9d1858dd60ca1b81525060405180602001604052806000815250836104aa9092919063ffffffff16565b6102b5604051806040016040528060048152602001630e0c2e8d60e31b815250604051806040016040528060078152602001661155120b1554d160ca1b815250836104aa9092919063ffffffff16565b60408051808201909152600a81526936bab63a34b83634b2b960b11b60208201526102ea908290670de0b6b3a76400006104cd565b6102f681600a546104eb565b5050565b60008281526005602052604090205482906001600160a01b031633146103785760405162461bcd60e51b815260206004820152602860248201527f536f75726365206d75737420626520746865206f7261636c65206f6620746865604482015267081c995c5d595cdd60c21b60648201526084015b60405180910390fd5b60008181526005602052604080822080546001600160a01b03191690555182917f7cc135e0cebb02c3480ae5d74d377283180a2601f8f644edf7987b009316c63a91a250600b5550565b6007546001600160a01b031633146104155760405162461bcd60e51b815260206004820152601660248201527526bab9ba10313290383937b837b9b2b21037bbb732b960511b604482015260640161036f565b600680546001600160a01b0319808216339081179093556007805490911690556040516001600160a01b03909116919082907f8be0079c531659141344cd1fd0a4f28419497f9722a3daafe3b4186f6b6457e090600090a350565b61047861050c565b61048181610561565b50565b61048c610d09565b610494610d09565b6104a08185308661060b565b9150505b92915050565b60808301516104b99083610651565b60808301516104c89082610651565b505050565b60808301516104dc9083610651565b60808301516104c89082610668565b600354600090610505906001600160a01b031684846106c8565b9392505050565b6006546001600160a01b0316331461055f5760405162461bcd60e51b815260206004820152601660248201527527b7363c9031b0b63630b1363290313c9037bbb732b960511b604482015260640161036f565b565b336001600160a01b038216036105b95760405162461bcd60e51b815260206004820152601760248201527f43616e6e6f74207472616e7366657220746f2073656c66000000000000000000604482015260640161036f565b600780546001600160a01b0319166001600160a01b03838116918217909255600654604051919216907fed8889f560326eb138920d842192f0eb3dd22b4f139c87a2c57538e05bae127890600090a350565b610613610d09565b6106238560800151610100610759565b50508284526001600160a01b03821660208501526001600160e01b031981166040850152835b949350505050565b61065e82600383516107be565b6104c882826108d3565b67ffffffffffffffff19811215610683576102f682826108fa565b67ffffffffffffffff81131561069d576102f6828261093c565b600081126106b1576102f6826000836107be565b6102f68260016106c384600019610da5565b6107be565b6004546000906106d9816001610dcc565b60045583516040808601516080870151519151600093633c6d41b960e01b9361070f938693849392899160029190602401610e25565b60408051601f198184030181529190526020810180516001600160e01b03166001600160e01b031990931692909217909152905061074f8683868461095f565b9695505050505050565b604080518082019091526060815260006020820152610779602083610e7a565b156107a157610789602083610e7a565b610794906020610e9c565b61079e9083610dcc565b91505b506020828101829052604080518085526000815290920101905290565b60178167ffffffffffffffff16116107e9576107e38360e0600585901b168317610abd565b50505050565b60ff8167ffffffffffffffff161161082757610810836018611fe0600586901b1617610abd565b506107e38367ffffffffffffffff83166001610ae2565b61ffff8167ffffffffffffffff16116108665761084f836019611fe0600586901b1617610abd565b506107e38367ffffffffffffffff83166002610ae2565b63ffffffff8167ffffffffffffffff16116108a75761089083601a611fe0600586901b1617610abd565b506107e38367ffffffffffffffff83166004610ae2565b6108bc83601b611fe0600586901b1617610abd565b506107e38367ffffffffffffffff83166008610ae2565b60408051808201909152606081526000602082015261050583846000015151848551610b08565b6109058260c3610abd565b506102f68261091683600019610da5565b60405160200161092891815260200190565b604051602081830303815290604052610bf2565b6109478260c2610abd565b506102f6828260405160200161092891815260200190565b6040516bffffffffffffffffffffffff193060601b1660208201526034810184905260009060540160408051808303601f1901815282825280516020918201206000818152600590925291812080546001600160a01b0319166001600160a01b038a1617905590925082917fb5e6e01e79f91267dc17b4e6314d5d4d03593d2ceee0fbb452b750bd70ea5af99190a2600254604051630200057560e51b81526001600160a01b0390911690634000aea090610a2290889087908790600401610eaf565b6020604051808303816000875af1158015610a41573d6000803e3d6000fd5b505050506040513d601f19601f82011682018060405250810190610a659190610edf565b6106495760405162461bcd60e51b815260206004820152602360248201527f756e61626c6520746f207472616e73666572416e6443616c6c20746f206f7261604482015262636c6560e81b606482015260840161036f565b6040805180820190915260608152600060208201526105058384600001515184610bff565b604080518082019091526060815260006020820152610649848560000151518585610c5a565b6040805180820190915260608152600060208201528251821115610b2b57600080fd5b6020850151610b3a8386610dcc565b1115610b6d57610b6d85610b5d87602001518786610b589190610dcc565b610cdb565b610b68906002610f01565b610cf2565b600080865180518760208301019350808887011115610b8c5787860182525b505050602084015b60208410610bcc5780518252610bab602083610dcc565b9150610bb8602082610dcc565b9050610bc5602085610e9c565b9350610b94565b51815160001960208690036101000a019081169019919091161790525083949350505050565b61065e82600283516107be565b60408051808201909152606081526000602082015283602001518310610c3457610c348485602001516002610b689190610f01565b8351805160208583010184815350808503610c50576001810182525b5093949350505050565b6040805180820190915260608152600060208201526020850151610c7e8584610dcc565b1115610c9257610c9285610b5d8685610dcc565b60006001610ca284610100610ffc565b610cac9190610e9c565b9050855183868201018583198251161781525080518487011115610cd05783860181525b509495945050505050565b600081831115610cec5750816104a4565b50919050565b8151610cfe8383610759565b506107e383826108d3565b6040805160a0810182526000808252602080830182905282840182905260608084018390528451808601909552845283015290608082015290565b60008060408385031215610d5757600080fd5b50508035926020909101359150565b600060208284031215610d7857600080fd5b81356001600160a01b038116811461050557600080fd5b634e487b7160e01b600052601160045260246000fd5b8181036000831280158383131683831282161715610dc557610dc5610d8f565b5092915050565b808201808211156104a4576104a4610d8f565b6000815180845260005b81811015610e0557602081850181015186830182015201610de9565b506000602082860101526020601f19601f83011685010191505092915050565b60018060a01b038816815286602082015285604082015263ffffffff60e01b851660608201528360808201528260a082015260e060c08201526000610e6d60e0830184610ddf565b9998505050505050505050565b600082610e9757634e487b7160e01b600052601260045260246000fd5b500690565b818103818111156104a4576104a4610d8f565b60018060a01b0384168152826020820152606060408201526000610ed66060830184610ddf565b95945050505050565b600060208284031215610ef157600080fd5b8151801515811461050557600080fd5b80820281158282048414176104a4576104a4610d8f565b600181815b80851115610f53578160001904821115610f3957610f39610d8f565b80851615610f4657918102915b93841c9390800290610f1d565b509250929050565b600082610f6a575060016104a4565b81610f77575060006104a4565b8160018114610f8d5760028114610f9757610fb3565b60019150506104a4565b60ff841115610fa857610fa8610d8f565b50506001821b6104a4565b5060208310610133831016604e8410600b8410161715610fd6575081810a6104a4565b610fe08383610f18565b8060001904821115610ff457610ff4610d8f565b029392505050565b60006105058383610f5b56fe68747470733a2f2f6170692e7468696e67737065616b2e636f6d2f6368616e6e656c732f323339343032342f66656564732e6a736f6e3f6170695f6b65793d57384b4b5a593033563443345a31353626726573756c74733d32a2646970667358221220feb3ff9084f685cf87ace24fd7e7063e6d2da18c7b0595278a8cf9977441f42164736f6c63430008130033","linkReferences":{}},"methodIdentifiers":{"acceptOwnership()":"79ba5097","fee()":"ddca3f43","fulfill(bytes32,uint256)":"4357855e","owner()":"8da5cb5b","response()":"7a7f01a7","reuestFunction()":"1bdd20f9","transferOwnership(address)":"f2fde38b"},"id":36}